:100000000C9434000C9401020C9451000C94510097
:100010000C9451000C9451000C9451000C9451001C
:100020000C9451000C9451000C9451000C9451000C
:100030000C9451000C9451000C9451000C945100FC
:100040000C9451000C9451000C9438020C946602EC
:100050000C9451000C9451000C9451000C945100DC
:100060000C9451000C94510011241FBECFEFD8E026
:10007000DEBFCDBF11E0A0E0B1E0EAE6F8E002C0EB
:1000800005900D92A034B107D9F722E0A0E4B1E0C9
:1000900001C01D92AC34B207E1F70E9481010C94BB
:1000A00033040C940000FC01408121E030E002C0E8
:1000B000220F331F6A95E2F7242B20830895FC0159
:1000C000808121E030E002C0220F331F6A95E2F701
:1000D0002095822380838181282321830895FC0138
:1000E000908121E030E002C0220F331F6A95E2F7D1
:1000F0002095292320830895FC01408121E030E0F0
:1001000002C0220F331F6A95E2F7242B2083089543
:1001100085B1826085B985E08A95F1F7000085B1E7
:100120008D7F85B90895CF93C82F662321F085B1BF
:10013000816085B903C085B18E7F85B98AB1806140
:100140008AB98AB180628AB98AB180648AB98AB16F
:1001500080688AB98BB18F778BB98BB18F7B8BB964
:100160008BB18F7D8BB98BB18F7E8BB9CC231CF477
:100170008BB180688BB9C6FF03C08BB180648BB92B
:10018000C5FF03C08BB180628BB9C4FF03C08BB1C4
:1001900080618BB90E9488008BB18F778BB98BB14E
:1001A0008F7B8BB98BB18F7D8BB98BB18F7E8BB9E8
:1001B000C3FF03C08BB180688BB9C2FF03C08BB192
:1001C00080648BB9C1FF03C08BB180628BB9C0FF63
:1001D00003C08BB180618BB90E9488008BB18061B4
:1001E0008BB98BB180628BB98BB180648BB98BB1C9
:1001F00080688BB987EB9BE00197F1F700C00000A6
:10020000CF91089560E00E949300089561E00E94FC
:1002100093000895611104C080580E94020108955E
:1002200080540E940201089581E00E940201089515
:1002300061E00E9493000895CF93DF93FC0103C017
:100240000E941801FE01EF01219680818111F8CFF3
:10025000DF91CF910895CF93C82F84B1816084B985
:100260008AB180628AB984B1826084B98AB18061BE
:100270008AB98AB180628AB98AB180648AB98AB13E
:1002800080688AB98FEF99EF0197F1F700C00000FD
:100290008BB180628BB98BB180618BB90E94880071
:1002A0008FE19EE40197F1F700C000000E948800F2
:1002B0008FEF90E00197F1F700C000000E948800E6
:1002C0008FEF90E00197F1F700C000008BB18F7EB7
:1002D0008BB90E9488008FEF90E00197F1F700C082
:1002E000000088E20E94020188E00E9402010E9450
:1002F000140186E00E9402018C2F0E940201CF911E
:10030000089562E08AE290E00E94530062E08BE28E
:1003100090E00E946F0063E08AE290E00E945F003C
:1003200065E084E290E00E9453008CE00E942B0183
:1003300061E080E00E940A0188E391E00E941C01D4
:1003400080E40E940201C0E008C0EC2FF0E0E05021
:10035000FF4F80810E940601CF5FC832B0F380E872
:100360000E94020187E690E00E9490028DB38160B6
:100370008DBBE9E6F0E080818160808380818D7FA4
:100380008083789462E08AE290E00E947C0025E31A
:100390002A95F1F7000062E08AE290E00E946F0087
:1003A000609144017091450180E090E00E94030358
:1003B00025E935E648E05CE30E946903609340016B
:1003C0007093410180934201909343010E94CD02BA
:1003D000DC01CB014AE068E271E00E94FE0388E2A2
:1003E00091E00E94C0028DE391E00E94C0028FEF75
:1003F00091EE24E0815090402040E1F700C00000E1
:10040000C1CF1F920F920FB60F9211248F939F931B
:10041000EF93FF938091460181110CC081E080939E
:100420004601E1E8F0E080818A7F808380818260FC
:10043000808315C080914601813089F4E1E8F0E0C5
:100440008081887F8083E4E8F0E0808191819093CF
:100450004501809344011182108210924601FF9160
:10046000EF919F918F910F900FBE0F901F90189555
:100470001F920F920FB60F9211242F938F939F9379
:10048000EF93FF938091C0002091C6008C71E091A2
:100490004901EF5FEF7790914801E91739F0E09358
:1004A0004901F0E0E45BFE4F208301C082E09091BF
:1004B0004701892B80934701FF91EF919F918F9185
:1004C0002F910F900FBE0F901F9018951F920F92B3
:1004D0000FB60F9211248F939F93EF93FF939091F8
:1004E0004B0180914A01981769F0E0914A01EF5F52
:1004F000EF77E0934A01F0E0E453FE4F8081809370
:10050000C60005C0E1ECF0E080818F7D8083FF9123
:10051000EF919F918F910F900FBE0F901F901895A4
:1005200010924B0110924A01109249011092480119
:10053000282F392F33231CF422E02093C000907819
:100540009093C5008093C40088E98093C10086E041
:100550008093C200089520914B012F5F2F779091D7
:100560004A012917E1F3E22FF0E0E453FE4F8083C4
:1005700020934B01E1ECF0E080818062808308955C
:10058000CF93DF93EC0103C021960E94AB028881D8
:100590008111FACFDF91CF9108950E94D40268941F
:1005A000B1110C94630308950E94480388F09F578B
:1005B00098F0B92F9927B751B0F0E1F0660F771F87
:1005C000881F991F1AF0BA95C9F714C0B13091F07D
:1005D0000E946203B1E008950C946203672F782FA4
:1005E0008827B85F39F0B93FCCF386957795679542
:1005F000B395D9F73EF490958095709561957F4FAE
:100600008F4F9F4F0895E89409C097FB3EF4909553
:100610008095709561957F4F8F4F9F4F9923A9F0DB
:10062000F92F96E9BB279395F6958795779567956A
:10063000B795F111F8CFFAF4BB0F11F460FF1BC0AE
:100640006F5F7F4F8F4F9F4F16C0882311F096E941
:1006500011C0772321F09EE8872F762F05C06623EF
:1006600071F096E8862F70E060E02AF09A95660FA8
:10067000771F881FDAF7880F9695879597F9089561
:1006800057FD9058440F551F59F05F3F71F0479543
:10069000880F97FB991F61F09F3F79F08795089528
:1006A000121613061406551FF2CF4695F1DF08C047
:1006B000161617061806991FF1CF86957105610564
:1006C00008940895E894BB2766277727CB0197F90C
:1006D00008950E947C030C94ED030E94DF0338F020
:1006E0000E94E60320F0952311F00C94D6030C949D
:1006F000DC0311240C9463030E94400370F3959F64
:10070000C1F3950F50E0551F629FF001729FBB2708
:10071000F00DB11D639FAA27F00DB11DAA1F649FA4
:100720006627B00DA11D661F829F2227B00DA11D57
:10073000621F739FB00DA11D621F839FA00D611DDD
:10074000221F749F3327A00D611D231F849F600DFE
:10075000211D822F762F6A2F11249F5750409AF027
:10076000F1F088234AF0EE0FFF1FBB1F661F771FB3
:10077000881F91505040A9F79E3F510580F00C947E
:10078000D6030C9463035F3FE4F3983ED4F386955D
:1007900077956795B795F795E7959F5FC1F7FE2B1E
:1007A000880F911D9695879597F9089597F99F67FA
:1007B00080E870E060E008959FEF80EC08950024E9
:1007C0000A941616170618060906089500240A94B6
:1007D00012161306140605060895092E0394000C3C
:1007E00011F4882352F0BB0F40F4BF2B11F460FFCB
:1007F00004C06F5F7F4F8F4F9F4F0895BB274A30D4
:1008000031F4992322F4BDE2909581959F4F0C9489
:100810000A04BB27FB015527AA27880F991FAA1F87
:10082000A41710F0A41B83955051B9F7A05DAA330B
:1008300008F0A95DA193009779F7B111B1931192D6
:10084000CB010C942304DC01FC01672F7191772309
:10085000E1F7329704C07C916D9370836291AE177B
:0A086000BF07C8F30895F894FFCF16
:10086A00111F1F1F1F1F1F1F1111111F1F1F1F1FC6
:10087A0011111111111F1F1F111111111111111F26
:10088A000E1F0E000A1402043000000000000000CF
:10089A0000000000000000004C564C3A000D0A000F
:00000001FF
