:100000000C9434000C9453000C9451000C94510047
:100010000C9451000C9451000C9451000C9451001C
:100020000C9451000C9451000C9451000C9451000C
:100030000C9451000C94C8000C9451000C94510085
:100040000C9486000C9451000C94CE030C94F7038E
:100050000C9451000C9451000C9451000C945100DC
:100060000C9451000C94510011241FBECFEFD8E026
:10007000DEBFCDBF12E0A0E0B1E0ECE8F1E102C0EC
:1000800005900D92A031B107D9F723E0A0E1B2E0CD
:1000900001C01D92AA31B207E1F70E9484040C94BA
:1000A000C4080C9400001F920F920FB60F921124F7
:1000B0002F933F934F935F936F937F938F939F9370
:1000C000AF93BF93EF93FF9380911002811116C0FD
:1000D0000E94270281E080931002FF91EF91BF916F
:1000E000AF919F918F917F916F915F914F913F91D0
:1000F0002F910F900FBE0F901F9018950E94340201
:100100000E9451030E94480280E0E5CF1F920F92A7
:100110000FB60F9211242F933F934F935F936F93DA
:100120007F938F939F93AF93BF93EF93FF938091B0
:1001300001018F5F8A3F98F480930101FF91EF9155
:10014000BF91AF919F918F917F916F915F914F91EF
:100150003F912F910F900FBE0F901F901895109206
:100160000101809100018F5F8093000165E084E2CE
:1001700090E00E943301809100018230F8F20E94E9
:100180003A0280E891E00E94A70210920001D6CFC7
:100190001F920F920FB60F9211242F933F934F93FC
:1001A0005F936F937F938F939F93AF93BF93EF93DF
:1001B000FF930E9434020E949F028AE991E00E940C
:1001C000A702FF91EF91BF91AF919F918F917F9186
:1001D0006F915F914F913F912F910F900FBE0F90B4
:1001E0001F901895FC01808121E030E001C0220FB2
:1001F0006A95EAF7822B80830895FC01208181E0D3
:1002000090E001C0880F6A95EAF780952823208343
:100210009181892381830895FC01208181E090E010
:1002200001C0880F6A95EAF7982F909592239083E2
:100230009181892B81830895FC01208181E090E0E8
:1002400001C0880F6A95EAF780958223808308951C
:10025000FC01808121E030E001C0220F6A95EAF7BD
:10026000822B80830895FC01808121E030E001C071
:10027000220F6A95EAF7822780830895FC01808126
:1002800021E030E001C0220F6A95EAF78223089549
:10029000299A85E08A95F1F7000029980895CF936F
:1002A000C82F662369F1289A549A559A569A579AF4
:1002B0005F985E985D985C98C7FD5F9AC6FD5E9AF0
:1002C000C5FD5D9AC4FD5C9A0E9448015F985E98E6
:1002D0005D985C98C3FD5F9AC2FD5E9AC1FD5D9A10
:1002E000C0FD5C9A0E9448015C9A5D9A5E9A5F9A92
:1002F00087EB9BE00197F1F700C00000CF910895D4
:100300002898D2CF28985D9A54985598569857981F
:10031000299A85E08A95F1F7000089B180714D999D
:1003200080624E9980644F998068299895E09A95EB
:10033000F1F70000299A95E09A95F1F700004C99A1
:1003400081604D9982604E9984604F9988602998A8
:10035000089560E00C944F0161E00C944F0161112D
:1003600003C080580C94A9018054FCCF0E948201E4
:1003700087FDFCCF85E18A95F1F700000E9482019C
:1003800090E0089581E00C94A90182E00C94A90109
:1003900061E00C944F01CF93DF93EC0189918111BF
:1003A00003C0DF91CF9108950E94C801CE01F5CF1F
:1003B000CF93DF93EC01FE0184912196811103C05C
:1003C000DF91CF9108950E94C801F5CFCF93C82F38
:1003D000209A559A219A549A559A569A579A8FEF7D
:1003E00099EF0197F1F700C000005D9A5C9A0E94B6
:1003F00048018FE19EE40197F1F700C000000E94E0
:1004000048018FEF90E00197F1F700C000000E94D3
:1004100048018FEF90E00197F1F700C000005C9871
:100420000E9448018FEF90E00197F1F700C00000B3
:1004300088E20E94A90188E00E94A9010E94C201ED
:1004400086E00E94A9018C2FCF910C94A9011092F3
:10045000850010928400E1E8F0E080818A7F80834B
:100460008081826080830895E1E8F0E08081887F68
:100470008083089563E08BE290E00E94280185E389
:100480008A95F1F7000063E08BE290E00C941C0188
:100490008091130260E08823A9F18FE00E94AF01F0
:1004A00084E00E94C80120910201309103014AE0DA
:1004B0006EE271E088EC90E0821B930B0E94BE0517
:1004C00061E085E00E94AF0180EB91E00E94CB01EA
:1004D00061E085E00E94AF018EE291E00E94CB01D5
:1004E00088EB91E00E94CB01809102019091030181
:1004F00061E08A31910570F48FE00E94AF0180E0E5
:100500000C94C8018FE00E94AF0186EB91E00E943D
:10051000CB01C9CF8536910528F48FE00E94AF0149
:1005200081E0EECF803B910528F48FE00E94AF017F
:1005300082E0E6CF8FE00E94AF0183E0E1CF61E08F
:1005400085E00E94AF018BEB91E00C94CB010E94FF
:100550006A048AE00C945504CF93DF938CE00E94E8
:10056000E60161E080E00E94AF0184EC91E00E942E
:10057000CB0180E40E94A901C6E0D1E089910E94EC
:10058000AC0181E0CE32D807C9F780E80E94A9010A
:1005900065E084E290E00E94F20063E08AE290E08D
:1005A0000E94F20063E08BE290E00E941C0162E096
:1005B0008AE290E00E94FD0064E084E290E00E9404
:1005C000F20064E085E290E00E94280185B58D7F0D
:1005D00085BD85B5846085BD80916E008160809306
:1005E0006E0080916F00816080936F00E89A809127
:1005F0006900816080936900809169008D7F80939C
:10060000690087E690E00E941C0489EC91E0DF918C
:10061000CF910C94A702CF93DF93EC019C012F5F45
:100620003F4F80911102909112022817390770F400
:1006300081E08093130283ED91E00E94A702D093A2
:100640001202C0931102DF91CF910895109213020C
:10065000F6CF80910201909103018B30910580F4D7
:100660008091140281111CC064E085E290E00E9438
:100670001C0181E08093140281EE91E00C94A702AA
:10068000C29770F080911402882351F064E085E2F3
:1006900090E00E942801109214028EEE91E0EECFBD
:1006A00008950F931F93CF93DF93CDB7DEB72997AC
:1006B0000FB6F894DEBF0FBECDBF8091840090913D
:1006C000850090930501809304018091040190912D
:1006D00005019C0150E040E02E833F834887598705
:1006E000CA01B9010E94C30425E935E648E05CE38C
:1006F0006E837F83888799876E817F8188859985BE
:100700000E9429056E837F83888799876E817F8108
:10071000888599850E949404CB01709303016093AE
:1007200002010E940B0385E0ECEFF1E08E010F5F08
:100730001F4FD80101900D928A95E1F72091020197
:100740003091030188EC90E0821B930B9F938F9371
:100750008CEF91E09F938F931F930F930E94E3057B
:1007600081E092E00E946A04C8010E946A0488EB5A
:1007700091E00E94A7020E9429030F900F900F9012
:100780000F900F900F9029960FB6F894DEBF0FBE12
:10079000CDBFDF91CF911F910F9108952F932FB768
:1007A0002F938F939F93EF93FF938091C00090912D
:1007B000C600E0911702EF5FEF77209116022E1727
:1007C000A1F08C71E0931702F0E0E65EFD4F90839C
:1007D00090911502892B80931502FF91EF919F91C3
:1007E0008F912F912FBF2F91189582E0F1CF8F938A
:1007F0008FB78F939F93EF93FF93909119028091FE
:100800001802981799F0E0911802EF5FEF77E093E4
:100810001802F0E0E656FD4F80818093C600FF91FC
:10082000EF919F918F918FBF8F9118958091C1000B
:100830008F7D8093C100F3CF9C011092190210921A
:100840001802109217021092160297FF03C082E05E
:100850008093C000832F80788093C5002093C400CC
:1008600088E98093C10086E08093C200089590914A
:100870001702809116029817A9F0909116029F5FB7
:100880009F77E92FF0E0E65EFD4F20818091150211
:10089000909316021092150290E0982F8827820FED
:1008A000911D089580E091E00895909119029F5F55
:1008B0009F77209118022917E1F3E92FF0E0E6561F
:1008C000FD4F8083909319028091C10080628093D4
:1008D000C1000895CF93DF93EC018991811103C08A
:1008E000DF91CF9108950E945504F7CFCF93DF9306
:1008F000EC01FE0184912196811103C0DF91CF911B
:1009000008950E945504F5CF0E94AC028EE391E059
:100910000E94A70288E491E00E94A70278948CE5E7
:1009200091E00E94A702FFCF0E94080588F09F5720
:1009300098F0B92F9927B751B0F0E1F0660F771F03
:10094000881F991F1AF0BA95C9F714C0B13091F0F9
:100950000E942205B1E008950C942205672F782F9C
:100960008827B85F39F0B93FCCF3869577956795BE
:10097000B395D9F73EF490958095709561957F4F2A
:100980008F4F9F4F0895E89409C097FB3EF49095D0
:100990008095709561957F4F8F4F9F4F9923A9F058
:1009A000F92F96E9BB279395F695879577956795E7
:1009B000B795F111F8CFFAF4BB0F11F460FF1BC02B
:1009C0006F5F7F4F8F4F9F4F16C0882311F096E9BE
:1009D00011C0772321F09EE8872F762F05C066236C
:1009E00071F096E8862F70E060E02AF09A95660F25
:1009F000771F881FDAF7880F9695879597F90895DE
:100A000057FD9058440F551F59F05F3F71F04795BF
:100A1000880F97FB991F61F09F3F79F087950895A4
:100A2000121613061406551FF2CF4695F1DF08C0C3
:100A3000161617061806991FF1CF869571056105E0
:100A400008940895E894BB2766277727CB0197F988
:100A500008950E943C050C94AD050E949F0538F056
:100A60000E94A60520F0952311F00C9496050C9495
:100A70009C0511240C9423050E94000570F3959F9A
:100A8000C1F3950F50E0551F629FF001729FBB2785
:100A9000F00DB11D639FAA27F00DB11DAA1F649F21
:100AA0006627B00DA11D661F829F2227B00DA11DD4
:100AB000621F739FB00DA11D621F839FA00D611D5A
:100AC000221F749F3327A00D611D231F849F600D7B
:100AD000211D822F762F6A2F11249F5750409AF0A4
:100AE000F1F088234AF0EE0FFF1FBB1F661F771F30
:100AF000881F91505040A9F79E3F510580F00C94FB
:100B000096050C9423055F3FE4F3983ED4F3869555
:100B100077956795B795F795E7959F5FC1F7FE2B9A
:100B2000880F911D9695879597F9089597F99F6776
:100B300080E870E060E008959FEF80EC0895002465
:100B40000A941616170618060906089500240A9432
:100B500012161306140605060895092E0394000CB8
:100B600011F4882352F0BB0F40F4BF2B11F460FF47
:100B700004C06F5F7F4F8F4F9F4F0895BB274A3050
:100B800031F4992322F4BDE2909581959F4F0C9406
:100B9000CA05BB27FB015527AA27880F991FAA1F43
:100BA000A41710F0A41B83955051B9F7A05DAA3388
:100BB00008F0A95DA193009779F7B111B193119253
:100BC000CB010C94EF07AEE0B0E0E9EEF5E00C9459
:100BD0009B080D891E8986E08C831A8309838FEF19
:100BE0009FE79E838D83AE01475E5F4F6F89788D4F
:100BF000CE0101960E9406062F813885020F131F31
:100C0000F80110822E96E4E00C94B708AFE0B0E053
:100C1000ECE0F6E00C948D087C013B018A01DC01DC
:100C200017961C921E92169713968C9181FFBEC147
:100C30009AE0292EFE0131964F01D70113969C911F
:100C4000F30193FD859193FF81913F01882309F47E
:100C500044C1853239F493FD859193FF81913F0121
:100C6000853229F4B70190E00E94FF07E6CFB12C4E
:100C7000412C512CBFE1B51538F08B3209F188F4C5
:100C8000803201F1833221F157FC3AC020ED280F68
:100C90002A3040F556FE1FC0B29C200D1124B22E02
:100CA00006C08D3291F0803379F7689450F8F301E3
:100CB00093FD859193FF81913F018111DBCF20C08E
:100CC000689451F8689452F8F2CF689453F8EFCFD3
:100CD000689454F8ECCF429C200D1124422E689465
:100CE00055F8E5CF8E3229F456FCF7C0689456F8D3
:100CF000DECF8C3619F4689457F8D9CF8836B9F21C
:100D0000982F9F7D95549330C0F0833681F18337BF
:100D1000A1F1833509F05BC0D801CD90DD908D0144
:100D20006B2D70E056FC02C06FEF7FEFC6010E9492
:100D3000D9075C01689457F80AC00C5F1F4FEFE3B6
:100D4000E983AA24A394B12C6401E89457F853FED4
:100D500029C0342CA114B10451F5332009F46DCF0E
:100D6000B70180E290E00E94FF073A94F6CFD801E5
:100D70008C9189830E5F1F4FE4CFF801C190D19011
:100D80008F016B2D70E056FC02C06FEF7FEFC60144
:100D90000E94E4075C01D9CFB70180E290E00E9495
:100DA000FF074A944A141B0409F0B0F7D2CFF601AA
:100DB00057FC859157FE81916F01B70190E00E9429
:100DC000FF0731103A94B1E0AB1AB108C3CF8436B3
:100DD00019F0893609F071C0F80157FE67C06191BA
:100DE0007191819191918F01E52DEF76DE2E97FF24
:100DF00009C090958095709561957F4F8F4F9F4F5B
:100E00006894D7F82AE030E0A4010E942F08C82E89
:100E1000C818AC2C5D2CD6FE0CC0E89450F8CB144E
:100E200040F4D4FE05C0D2FC03C05D2D5E7E552E7D
:100E3000AB2C54FE93C0FE01EC0DF11D808180337C
:100E400009F085C0652D697E562E752D7870372E78
:100E500053FC93C050FE8DC0BC2CA41410F4B40CF1
:100E6000BA1854FE90C0B70180E390E00E94FF07DB
:100E700052FE07C088E751FC88E590E0B7010E9468
:100E8000FF07CB1408F48BC0CA94D12C8FEFC81A7B
:100E9000D80AC80CD91CD6018E916D01B70190E01B
:100EA0000E94FF078C149D04B1F757CF6191719197
:100EB000072E000C880B990B96CFD52CE894D4F80C
:100EC0002AE0853729F1F52DF97FDF2E8037A1F053
:100ED00058F48835A1F08F36D1F0F70186819781DB
:100EE0002F96E2E10C94A9088837B9F7D4FE02C026
:100EF0006894D2F820E10CC06894D4F8F7CF54FE7F
:100F000003C02F2F2660D22E20E132E002C028E05D
:100F100030E0F801D7FE15C0419151916191719176
:100F20004C875D876E877F878F01A4016C857D85E7
:100F30008E859F850E942F08C82EC818E894D7F880
:100F400068CF81919191AC0170E060E0E9CF52FCF3
:100F500002C0A3947ACFA394A39477CF852D8678EB
:100F600009F473CFF6CFB70180E290E00E94FF074B
:100F7000A394A414C0F3312C74CF342C3A18A414C5
:100F800008F46FCFF8CF852D867809F47ACF8BE2FD
:100F900051FE80E257FC8DE2B70190E070CFB701BF
:100FA00080E390E00E94FF07BA946BCF8FEF9FEF32
:100FB00097CFFC010590615070400110D8F78095E3
:100FC00090958E0F9F1F0895FC0161507040019015
:100FD0000110D8F7809590958E0F9F1F0895DC0122
:100FE000FC01672F71917723E1F7329704C07C9160
:100FF0006D9370836291AE17BF07C8F308950F9386
:101000001F93CF93DF93182F092FEB018B8181FD65
:1010100009C01FEF0FEF812F902FDF91CF911F910C
:101020000F91089582FF14C02E813F818C819D8194
:10103000281739073CF4E881F981CF01019699839B
:10104000888310838E819F8101969F838E83E3CF57
:10105000E885F985812F0995892BA1F3DACFFA016B
:10106000AA27283051F1203181F1E8946F936E7FE7
:101070006E5F7F4F8F4F9F4FAF4FB1E03ED0B4E0D8
:101080003CD0670F781F891F9A1FA11D680F791F19
:101090008A1F911DA11D6A0F711D811D911DA11D2A
:1010A00020D009F468943F912AE0269F112430193A
:1010B000305D3193DEF6CF010895462F4770405DD5
:1010C0004193B3E00FD0C9F7F6CF462F4F70405D84
:1010D0004A3318F0495D31FD4052419302D0A9F7DF
:1010E000EACFB4E0A6959795879577956795BA95D9
:1010F000C9F700976105710508959B01AC010A2E9F
:1011000006945795479537952795BA95C9F7620F75
:10111000731F841F951FA01D08952F923F924F9219
:101120005F926F927F928F929F92AF92BF92CF9277
:10113000DF92EF92FF920F931F93CF93DF93CDB780
:10114000DEB7CA1BDB0B0FB6F894DEBF0FBECDBFF8
:1011500009942A88398848885F846E847D848C84C9
:101160009B84AA84B984C884DF80EE80FD800C81D2
:101170001B81AA81B981CE0FD11D0FB6F894DEBFB5
:0C1180000FBECDBFED010895F894FFCF25
:10118C003BF9C8001027111F1F1F1F1F1F1F111114
:10119C00111F1F1F1F1F11111111111F1F1F1111C3
:1011AC0011111111111F0E1F0E000A140204300030
:1011BC000000000000000000000000000000496E6C
:1011CC00697420646F6E6500456E61626C696E6750
:1011DC0020696E746572727570747300496E7465F3
:1011EC0072727570747320656E61626C65642C200C
:1011FC00676F696E6720696E746F206C6F6F70001B
:10120C0044697374616E63652073656E736F7220CD
:10121C007472696767657265640053656E736F728B
:10122C002074696D6572206F766572666C6F7700DD
:10123C002020202020202000636D004D656173204C
:10124C00657272004C564C3A005561727420696E8E
:10125C006974005261696E206465746563746564B9
:10126C000050554D5020656E61626C6564005055A0
:10127C004D502064697361626C6564002530336481
:10128C00005761746572206C6576656C3A200000BD
:00000001FF
