:100000000C9434000C94C4010C9451000C945100D5
:100010000C9451000C9451000C9451000C9451001C
:100020000C9451000C9451000C9451000C9451000C
:100030000C9451000C9451000C9451000C945100FC
:100040000C9488010C9451000C94F9010C94220238
:100050000C9451000C9451000C9451000C945100DC
:100060000C9451000C94510011241FBECFEFD8E026
:10007000DEBFCDBF11E0A0E0B1E0EAE7F9E002C0E9
:1000800005900D92A835B107D9F722E0A8E5B1E0B7
:1000900001C01D92A436B207E1F70E94AF020C9492
:1000A000BB040C940000FC01808121E030E001C021
:1000B000220F6A95EAF7822B80830895FC01208144
:1000C00081E090E001C0880F6A95EAF780952823C7
:1000D00020839181892381830895FC01208181E01F
:1000E00090E001C0880F6A95EAF7982F90959223C7
:1000F00090839181892B81830895FC01208181E087
:1001000090E001C0880F6A95EAF78095822380838A
:100110000895FC01808121E030E001C0220F6A9542
:10012000EAF7822B80830895FC01808121E030E092
:1001300001C0220F6A95EAF7822780830895FC01A7
:10014000808121E030E001C0220F6A95EAF7822326
:100150000895299A85E08A95F1F700002998089575
:10016000CF93C82F662369F1289A549A559A569AC4
:10017000579A5F985E985D985C98C7FD5F9AC6FD38
:100180005E9AC5FD5D9AC4FD5C9A0E94A9005F98C5
:100190005E985D985C98C3FD5F9AC2FD5E9AC1FD52
:1001A0005D9AC0FD5C9A0E94A9005C9A5D9A5E9A75
:1001B0005F9A87EB9BE00197F1F700C00000CF91B9
:1001C00008952898D2CF28985D9A549855985698B3
:1001D0005798299A85E08A95F1F7000089B18071D6
:1001E0004D9980624E9980644F998068299895E076
:1001F0009A95F1F70000299A95E09A95F1F7000099
:100200004C9981604D9982604E9984604F998860C5
:100210002998089560E00C94B00061E00C94B0005F
:10022000611103C080580C940A018054FCCF0E94D5
:10023000E30087FDFCCF85E18A95F1F700000E947D
:10024000E30090E0089581E00C940A0182E00C94B0
:100250000A0161E00C94B000CF93DF93EC01899127
:10026000811103C0DF91CF9108950E942901CE0131
:10027000F5CFCF93DF93EC01FE018491219681119C
:1002800003C0DF91CF9108950E942901F5CFCF934C
:10029000C82F209A559A219A549A559A569A579A45
:1002A0008FEF99EF0197F1F700C000005D9A5C9A1B
:1002B0000E94A9008FE19EE40197F1F700C00000C1
:1002C0000E94A9008FEF90E00197F1F700C00000B5
:1002D0000E94A9008FEF90E00197F1F700C00000A5
:1002E0005C980E94A9008FEF90E00197F1F700C0A1
:1002F000000088E20E940A0188E00E940A010E9430
:10030000230186E00E940A018C2FCF910C940A01F0
:100310001F920F920FB60F9211242F933F934F937A
:100320005F936F937F938F939F93AF93BF93EF935D
:10033000FF9380E491E00E94950261E085E00E94D5
:10034000100183E591E00E942C0161E08FE00E94A2
:10035000100183E00E94290160E08FE00E941001FB
:1003600084E00E942901FF91EF91BF91AF919F918D
:100370008F917F916F915F914F913F912F910F904E
:100380000FBE0F901F9018951F921FB61F92112439
:100390008F939F9380915E01811113C081E08093C0
:1003A0005E01809181008A7F80938100809181002D
:1003B0008260809381009F918F911F901FBE1F903C
:1003C000189580915E018130B1F780918100887F1E
:1003D00080938100809184009091850090935D01CD
:1003E00080935C01109285001092840010925E014F
:1003F000E2CF2F932FB72F938F939F93EF93FF937A
:100400008091C0009091C600E0916101EF5FEF77AD
:10041000209160012E17A1F08C71E0936101F0E052
:10042000EC59FE4F908390915F01892B80935F017F
:10043000FF91EF919F918F912F912FBF2F91189541
:1004400082E0F1CF8F938FB78F939F93EF93FF93BA
:100450009091630180916201981799F0E091620197
:10046000EF5FEF77E0936201F0E0EC51FE4F8081A7
:100470008093C600FF91EF919F918F918FBF8F91D5
:1004800018958091C1008F7D8093C100F3CF9C01AE
:10049000109263011092620110926101109260014A
:1004A00097FF03C082E08093C000832F8078809301
:1004B000C5002093C40088E98093C10086E0809342
:1004C000C200089590916101809160019817A9F090
:1004D000909160019F5F9F77E92FF0E0EC59FE4F0C
:1004E000208180915F019093600110925F0190E004
:1004F000982F8827820F911D089580E091E008953C
:10050000909163019F5F9F77209162012917E1F32A
:10051000E92FF0E0EC51FE4F8083909363018091CE
:10052000C10080628093C1000895CF93DF93EC01F6
:100530008991811103C0DF91CF9108950E948002BB
:10054000F7CFCF93DF93EC01FE01849121968111C7
:1005500003C0DF91CF9108950E948002F5CF00D0B3
:1005600000D0CDB7DEB762E08AE290E00E9453008F
:1005700062E08AE290E00E947D0063E08AE290E01F
:100580000E945E0065E084E290E00E9453008CE0EF
:100590000E94470161E080E00E94100188E391E041
:1005A0000E942C0180E40E940A0120E031E03A839D
:1005B0002983E981FA818191FA83E9830E940D01FF
:1005C00029813A8128523140A1F780E80E940A012E
:1005D00087E690E00E944702E89A80916900816076
:1005E00080936900809169008D7F80936900789481
:1005F00062E08AE290E00E94890055E35A95F1F7A3
:10060000000062E08AE290E00E947D0080915C013F
:1006100090915D019C0150E040E029833A834B8337
:100620005C83CA01B9010E948B0325E935E648E0E5
:100630005CE369837A838B839C8369817A818B8174
:100640009C810E94F103362F272F462F572FBC0184
:10065000409358015093590160935A0170935B0184
:1006600039832A838B839C8369817A818B819C81E6
:100670000E945503362F272F4AE068E271E0832F4E
:10068000922F0E94860488E291E00E9495028DE3F9
:1006900091E00E9495023FEF41EE54E0315040401E
:1006A0005040E1F700C00000A3CF0E945C036894B3
:1006B000B1110C94EB0308950E94D00388F09F576A
:1006C00098F0B92F9927B751B0F0E1F0660F771F76
:1006D000881F991F1AF0BA95C9F714C0B13091F06C
:1006E0000E94EA03B1E008950C94EA03672F782F83
:1006F0008827B85F39F0B93FCCF386957795679531
:10070000B395D9F73EF490958095709561957F4F9C
:100710008F4F9F4F0895E89409C097FB3EF4909542
:100720008095709561957F4F8F4F9F4F9923A9F0CA
:10073000F92F96E9BB279395F69587957795679559
:10074000B795F111F8CFFAF4BB0F11F460FF1BC09D
:100750006F5F7F4F8F4F9F4F16C0882311F096E930
:1007600011C0772321F09EE8872F762F05C06623DE
:1007700071F096E8862F70E060E02AF09A95660F97
:10078000771F881FDAF7880F9695879597F9089550
:1007900057FD9058440F551F59F05F3F71F0479532
:1007A000880F97FB991F61F09F3F79F08795089517
:1007B000121613061406551FF2CF4695F1DF08C036
:1007C000161617061806991FF1CF86957105610553
:1007D00008940895E894BB2766277727CB0197F9FB
:1007E00008950E9404040C9475040E94670438F074
:1007F0000E946E0420F0952311F00C945E040C947A
:10080000640411240C94EB030E94C80370F3959FB9
:10081000C1F3950F50E0551F629FF001729FBB27F7
:10082000F00DB11D639FAA27F00DB11DAA1F649F93
:100830006627B00DA11D661F829F2227B00DA11D46
:10084000621F739FB00DA11D621F839FA00D611DCC
:10085000221F749F3327A00D611D231F849F600DED
:10086000211D822F762F6A2F11249F5750409AF016
:10087000F1F088234AF0EE0FFF1FBB1F661F771FA2
:10088000881F91505040A9F79E3F510580F00C946D
:100890005E040C94EB035F3FE4F3983ED4F386953B
:1008A00077956795B795F795E7959F5FC1F7FE2B0D
:1008B000880F911D9695879597F9089597F99F67E9
:1008C00080E870E060E008959FEF80EC08950024D8
:1008D0000A941616170618060906089500240A94A5
:1008E00012161306140605060895092E0394000C2B
:1008F00011F4882352F0BB0F40F4BF2B11F460FFBA
:1009000004C06F5F7F4F8F4F9F4F0895BB274A30C2
:1009100031F4992322F4BDE2909581959F4F0C9478
:100920009204BB27FB015527AA27880F991FAA1FEE
:10093000A41710F0A41B83955051B9F7A05DAA33FA
:1009400008F0A95DA193009779F7B111B1931192C5
:10095000CB010C94AB04DC01FC01672F7191772370
:10096000E1F7329704C07C916D9370836291AE176A
:0A097000BF07C8F30895F894FFCF05
:10097A00111F1F1F1F1F1F1F1111111F1F1F1F1FB5
:10098A0011111111111F1F1F111111111111111F15
:10099A000E1F0E000A1402043000000000000000BE
:1009AA0000000000000000004C564C3A000D0A00FE
:1009BA0054494D302064697370206F7672662F72C5
:0809CA002F6E0032636D000086
:00000001FF
